:100000000C945D000C9485000C9485000C94850084
:100010000C9485000C9485000C9485000C9485004C
:100020000C9485000C9485000C9485000C9485003C
:100030000C9485000C9485000C9485000C9485002C
:100040000C948B0A0C9485000C94590A0C94330A76
:100050000C9485000C9485000C9485000C9485000C
:100060000C9485000C94850000000008000201003B
:100070000003040700000000000000000000000072
:10008000250028002B0000000000240027002A0083
:10009000040404040404040402020202020203032E
:1000A0000303030301020408102040800102040836
:1000B0001020010204081020D50A11241FBECFEF22
:1000C000D8E0DEBFCDBF11E0A0E0B1E0EEEBFBE198
:1000D00002C005900D92A03EB107D9F724E0A0EE32
:1000E000B1E001C01D92AB3FB207E1F710E0CDE5F2
:1000F000D0E004C02197FE010E94D70DCC35D10776
:10010000C9F70E943A0B0C94DD0D0C94000090E0AE
:10011000FC01EC55FF4F249180579F4FFC018491C7
:10012000882399F090E0880F991FFC01EA57FF4F50
:10013000A591B491FC01E458FF4F859194918FB73C
:10014000F894EC91E22BEC938FBF0895AF92BF929D
:10015000CF92DF92EF92FF920F931F93CF93DF9393
:100160006C017B018B01040F151FEB015E01AE18C2
:10017000BF08C017D10759F06991D601ED91FC91E4
:100180000190F081E02DC6010995892B79F7C50111
:10019000DF91CF911F910F91FF90EF90DF90CF9063
:1001A000BF90AF900895FC01538D448D252F30E012
:1001B000842F90E0821B930B541710F0CF96089574
:1001C00001970895FC01918D828D981761F0A28DA1
:1001D000AE0FBF2FB11D5D968C91928D9F5F9F7367
:1001E000928F90E008958FEF9FEF0895FC01918D1D
:1001F000828D981731F0828DE80FF11D858D90E08A
:1002000008958FEF9FEF0895FC01918D228D892F26
:1002100090E0805C9F4F821B91098F73992708950E
:100220008BEF93E00E94040121E0892B09F420E088
:10023000822F089580E090E0892B29F00E94100120
:1002400081110C9400000895FC01A48DA80FB92F12
:10025000B11DA35ABF4F2C91848D90E001968F73EE
:100260009927848FA689B7892C93A089B1898C910D
:10027000837080648C93938D848D981306C002885C
:10028000F389E02D80818F7D80830895EF92FF9226
:100290000F931F93CF93DF93EC0181E0888F9B8DA9
:1002A0008C8D98131AC0E889F989808185FF15C063
:1002B0009FB7F894EE89FF896083E889F989808186
:1002C0008370806480839FBF81E090E0DF91CF9155
:1002D0001F910F91FF90EF900895F62E0B8D10E077
:1002E0000F5F1F4F0F731127E02E8C8D8E110CC0E6
:1002F0000FB607FCFACFE889F989808185FFF5CF31
:10030000CE010E942401F1CFEB8DEC0FFD2FF11DEA
:10031000E35AFF4FF0829FB7F8940B8FEA89FB896D
:1003200080818062CFCFCF93DF93EC01888D8823CB
:10033000B9F0AA89BB89E889F9898C9185FD03C048
:10034000808186FD0DC00FB607FCF7CF8C9185FF2D
:10035000F2CF808185FFEDCFCE010E942401E9CF4D
:10036000DF91CF91089590E0FC01E859FF4F24916F
:10037000FC01EC55FF4F3491FC01E057FF4FE49135
:10038000EE23C9F0222339F0233001F1A8F4213003
:1003900019F1223029F1F0E0EE0FFF1FE458FF4F72
:1003A000A591B4918FB7F894EC91611126C0309566
:1003B0003E233C938FBF08952730A9F02830C9F021
:1003C000243049F7809180008F7D03C080918000A8
:1003D0008F7780938000DFCF84B58F7784BDDBCFAC
:1003E00084B58F7DFBCF8091B0008F778093B00074
:1003F000D2CF8091B0008F7DF9CF3E2BDACF8E50D7
:10040000806480937C0080917A00806480937A007D
:1004100080917A0086FDFCCF8091780090917900E0
:1004200008953FB7F8948091E7039091E803A09175
:10043000E903B091EA0326B5A89B05C02F3F19F048
:100440000196A11DB11D3FBFBA2FA92F982F882754
:10045000BC01CD01620F711D811D911D42E0660F2F
:10046000771F881F991F4A95D1F708958F929F9201
:10047000AF92BF92CF92DF92EF92FF924B015C015D
:100480000E9411026B017C010E9411026C197D090E
:100490008E099F09683E734081059105A8F321E00C
:1004A000821A9108A108B10888EEC80E83E0D81E10
:1004B000E11CF11C81149104A104B10429F7FF90FF
:1004C000EF90DF90CF90BF90AF909F908F90089566
:1004D00061E0FC0184810E94B3018091E0018111FF
:1004E0001092E00108958EBD00000DB407FEFDCF0F
:1004F0008EB508958FEF0C9473020F931F93CF93D3
:10050000DF938C012FB7F8948091F7039091F80353
:10051000A091F903B091FA032FBFEC010E947A0277
:100520008F3FB1F02FB7F8948091F7039091F803C3
:10053000A091F903B091FA032FBF8C1B9D0B80177C
:10054000910760F380E0DF91CF911F910F910895A3
:1005500081E0F9CFCF92DF92EF92FF920F931F933A
:10056000CF93DF93EC01162F69017A018E818823E6
:1005700089F08F8198859C012F5F3F4F38872F83AB
:100580008230924018F40E947A02F3CFCE010E948A
:1005900068021E828091E001811109C081E0809390
:1005A000E00190919804809199049CBD8DBD60E01C
:1005B0008C810E94B3018CE291E00E947D02812F28
:1005C00080640E94730208E110E0D701C601002E8A
:1005D00004C0B695A795979587950A94D2F70E947F
:1005E000730208501109083F8FEF180771F78FEF5A
:1005F0000E94730210E00E947A028A8787FF04C07B
:100600001F3F11F01F5FF7CFDF91CF911F910F9127
:10061000FF90EF90DF90CF900895EF92FF920F93AD
:100620001F93CF93DF93EC01790182E141155105CE
:100630006105710599F08B85833039F089E0440FAD
:10064000551F661F771F8A95D1F79A01AB0168E1A4
:10065000CE010E94AA02882319F084E08D8330C065
:100660008EEF0E94730287018EEFF81AF8018191D4
:100670008F010E9473020E151F05C1F78FEF0E94B4
:1006800073028FEF0E9473020E947A028A878F7131
:10069000853089F488E592E00E947D028823A9F0E4
:1006A00020E030E0A9016DE0CE010E94AA0288237B
:1006B00071F084E1D3CF81E18D83CE010E94680285
:1006C000CE010E94680280E00AC085E1C7CF0E9487
:1006D0007A028111EECFCE010E94680281E0DF91A3
:1006E000CF911F910F91FF90EF9008958091E101BC
:1006F000882389F14091000150910101609102012C
:100700007091030126EE31E090E080E00E940D033D
:10071000811102C080E008954091E2015091E3010F
:100720006091E4017091E501411551056105710584
:1007300081F026EE31E090E080E00E940D038823F6
:1007400049F31092E2011092E3011092E401109239
:10075000E5011092E10181E00895AF92BF92CF923E
:10076000DF92EF92FF921F93CF93DF936B017C0197
:10077000142F8091000190910101A0910201B0918C
:1007800003018C159D05AE05BF0509F4BEC00E948E
:1007900076038823E1F1809106008823A1F08091FF
:1007A000000090910100A0910200B0910300C816D2
:1007B000D906EA06FB0639F48091070090910800FB
:1007C000892B09F461C0C0920000D0920100E09230
:1007D0000200F092030080910B00A7019601833084
:1007E00039F099E0220F331F441F551F9A95D1F716
:1007F00061E190E080E00E94AA02882391F083E00A
:100800008093050090E080E00E94680280E0DF9124
:10081000CF911F91FF90EF90DF90CF90BF90AF905E
:1008200008952FB7F8948091F7039091F803A09161
:10083000F903B091FA032FBFEC010E947A02809372
:100840000A008F3FC1F42FB7F8948091F70390917D
:10085000F803A091F903B091FA032FBF8C1B9D0BF5
:100860008D32914050F38FE08093050090E080E05E
:100870000E946802C7CF8E3FC1F510920800109207
:10088000070081E080930600C6EED1E086EEA82E38
:1008900083E0B82E0E947A028993AC16BD06D1F788
:1008A00080910700909108009E5F909308008093CC
:1008B000070020910900222319F081159240E8F0E9
:1008C000809106008823C9F080910700909108006C
:1008D0009C012F5F3F4F3093080020930700823028
:1008E000924028F40E947A02EFCF8DE0BDCF90E0D5
:1008F00080E00E94680210920600C0920001D0922F
:100900000101E0920201F09203014091E101412BCB
:100910004093E10181E07BCF4F925F926F927F9293
:100920008F929F92AF92BF92CF92DF92EF92FF92FF
:100930000F931F93CF93DF93EC0142305105610574
:10094000710590F480E0DF91CF911F910F91FF909E
:10095000EF90DF90CF90BF90AF909F908F907F905F
:100960006F905F904F90089589859A85AB85BC857F
:100970000196A11DB11D84179507A607B70710F3AF
:10098000CB88DC88ED88FE888F89803109F042C0F1
:10099000BB27A72F962F852F480159012A013B011C
:1009A000C80ED91EEA1EFB1E809100019091010124
:1009B000A0910201B0910301C816D906EA06FB0610
:1009C00099F58F898031C1F5B301A20155276627BA
:1009D0007727440F551F4A515E4FFA01918280825A
:1009E0008091E10181608093E1018A89823080F009
:1009F0008D819E81AF81B8858C0D9D1DAE1DBF1D63
:100A00008093E2019093E301A093E401B093E501A8
:100A100081E099CFDB01CA01E7E0B695A7959795EC
:100A20008795EA95D1F7B8CF40E0C701B6010E949B
:100A3000AD038111C6CF86CFB301A2014F775527F1
:100A400066277727440F551F440F551F4A515E4FA5
:100A5000FA0180829182A282B382C2CF8F929F924A
:100A6000AF92BF92CF92DF92EF92FF920F931F93BC
:100A7000CF93DF93FC0181859285A385B485019690
:100A8000A11DB11D84179507A607B70770F480E074
:100A9000DF91CF911F910F91FF90EF90DF90CF905A
:100AA000BF90AF909F908F90089583889488A58879
:100AB000B6888789803189F5BB27A72F962F852F88
:100AC000E9016A017B018F01BC01CD01680D791D2F
:100AD0008A1D9B1D8090000190900101A090020151
:100AE000B090030186169706A806B90601F5F8012D
:100AF0008789803111F5DD24EE24FF24F601EE0F05
:100B0000FF1FEA51FE4F80819181B0E0A0E0888311
:100B10009983AA83BB8381E0BBCFDB01CA01C7E015
:100B2000B695A79597958795CA95D1F7C9CF40E017
:100B30000E94AD038111DBCFAACFE894C7F8DD2472
:100B4000EE24FF24F601EE0FFF1FEE0FFF1FEA5108
:100B5000FE4F80819181A281B381BF70D8CF3F9237
:100B60004F925F926F927F928F929F92AF92BF92BD
:100B7000CF92DF92EF92FF920F931F93CF93DF9369
:100B8000CDB7DEB72C970FB6F894DEBF0FBECDBF42
:100B90005C01DC015B968D909C905C9716964D9065
:100BA0005D906D907C90199741145104610471041B
:100BB00009F468C0BFEF4B1A5B0A6B0A7B0A312C41
:100BC000F40181859285A385B4859C01AD012F5FD9
:100BD0003F4F4F4F5F4F29873A874B875C877301A1
:100BE00062011D821E821F821886F4018185928512
:100BF000A385B4852D813E814F81588528173907FB
:100C00004A075B0708F056C089859A85AB85BC8585
:100C10008C159D05AE05BF0550F482E0C82ED12C81
:100C2000E12CF12C92E0492E512C612C712C9E016B
:100C30002F5F3F4FB701A601C4010E942E058823F4
:100C4000C9F189819A81AB81BC81892B8A2B8B2B3D
:100C500009F1260137019FEF491A590A690A790AF1
:100C60002D813E814F8158852F5F3F4F4F4F5F4F02
:100C70002D833E834F8358873FEFC31AD30AE30A7D
:100C8000F30AB3CFF4014080518062807380332433
:100C9000339496CFC414D504E604F70409F70FEF94
:100CA0001FEF2FEF3FE0B701A601C4010E948C04A3
:100CB000811119C080E02C960FB6F894DEBF0FBEEC
:100CC000CDBFDF91CF911F910F91FF90EF90DF90FB
:100CD000CF90BF90AF909F908F907F906F905F90DC
:100CE0004F903F900895F501468157816085718549
:100CF000411551056105710539F097018601C4015F
:100D00000E948C048823B1F2D5011696CD92DD9213
:100D1000ED92FC921997332051F0D701C60101964C
:100D2000A11DB11DF40180839183A283B383F501DA
:100D30008789908DA18DB28D892B8A2B8B2B39F4CD
:100D4000C78AD08EE18EF28E84818068848381E0B0
:100D5000B2CF4F925F926F927F928F929F92AF929B
:100D6000BF92CF92DF92EF92FF920F931F93CF9398
:100D7000DF9300D000D01F92CDB7DEB78C016D831A
:100D8000DC0115968C911597813009F01FC11496DE
:100D90008C91149781FF1AC182FF12C01A968D9010
:100DA0009D90AD90BC901D975396CD90DD90ED90A9
:100DB000FC905697C814D904EA04FB0409F0A3C0B8
:100DC000D8015B96ED91FC915C971A96AD90BD9021
:100DD000CD90DC901D9794809A94B601A50189E08E
:100DE00076956795579547958A95D1F79422B1E006
:100DF000BB22992009F4FBC0D8015B96ED91FC91D0
:100E00005C971696CD90DD90ED90FC901997B2E02E
:100E1000CB1AD108E108F108858504C0CC0CDD1C93
:100E2000EE1CFF1C8A95D2F746855785608971892B
:100E3000C40ED51EE61EF71EC90CD11CE11CF11C08
:100E4000A114B10409F0A1C1F8014285538564855C
:100E5000758583899489A589B689481759076A07D2
:100E60007B0708F492C10E947603882309F4AEC080
:100E7000C0920001D0920101E0920201F0920301C0
:100E80008091E10181608093E101F501EA51FE4F1B
:100E90008D818083F80182859385A485B58501962F
:100EA000A11DB11D82879387A487B5874389548983
:100EB00065897689481759076A077B0738F42481C2
:100EC000838B948BA58BB68B20682483D8011496D2
:100ED0008C9183FDFCC081E090E00F900F900F900B
:100EE0000F900F90DF91CF911F910F91FF90EF9096
:100EF000DF90CF90BF90AF909F908F907F906F903A
:100F00005F904F900895C114D104E104F10461F49D
:100F1000F80116821782108611861A961D921D926C
:100F20001D921C921D974CCF5B96ED91FC9185858F
:100F300090E00996B501A401415051096109710978
:100F4000082E04C076956795579547950A94D2F771
:100F500026013701B1E04B1A51086108710804C03D
:100F600076946794579447948A95D2F74416550619
:100F70006606770620F089288A288B2869F5F8010B
:100F80008789908DA18DB28D86839783A087B18745
:100F90005801F6E0AF0EB11CD8015B968D919C9183
:100FA0005C9716964D915D916D917C9119974114C6
:100FB000510461047104A9F095010E942E05B1E06D
:100FC0004B1A5108610871088111E6CF81E090E069
:100FD000F8019383828354C0441A550A660A770A3B
:100FE000D7CFF801C286D386E486F586E9CED8014C
:100FF00016964D915D916D917C911997A114B10454
:1010000009F0ACC0411551056105710589F5579688
:101010008D919D910D90BC91A02D0097A105B105DA
:1010200009F04FC0C8010E94AF05882379F2D801AA
:101030005B96ED91FC915C971696CD90DD90ED90CE
:10104000FC901997B2E0CB1AD108E108F108858528
:1010500004C0CC0CDD1CEE1CFF1C8A95D2F7468523
:10106000578560897189C40ED51EE61EF71EECCE29
:101070009E012F5F3F4FCF010E942E05811103C0BB
:1010800090E080E02ACF89819A81AB81BC81F80110
:10109000238D348DF901278948EF5FEF60E070E020
:1010A000203121F048EF5FEF6FEF7FE08417950765
:1010B000A607B70730F0C8010E94AF0581119CCE8A
:1010C00085CFF80186839783A087B18795CEF801F5
:1010D0009581992309F47ACF87FF3BC06685778590
:1010E0008089918941E00E94AD03882309F46ECF85
:1010F000D8015296EC91B0E2EB9FF0011124EA5135
:10110000FE4F309709F462CFD80115968C91159750
:10111000823050F453964D915D916D917C9156972C
:10112000448F558F668F778FD80157968D919C91FC
:101130005897938F828F57964D915D916D917C91C9
:101140005A97758B648B14968C9114978F7714969D
:101150008C930E9476038111BECE38CF6A017B0149
:1011600022E0C21AD108E108F108858504C0CC0C40
:10117000DD1CEE1CFF1C8A95D2F7468557856089D9
:101180007189C40ED51EE61EF71E41E0C701B601E7
:101190000E94AD03811179CE19CF089590E080E0CF
:1011A0000895FC0101900020E9F73197AF01481B39
:1011B000590BBC0183EE94E00C94A600CF93DF930F
:1011C000EC0160E08E810E94B30161E08E810E949B
:1011D000B30160E08E810E94B3018BE891E001973A
:1011E000F1F7DF91CF910895CF92DF92EF92FF92C6
:1011F0000F931F93CF93DF936C017C0187E0E80E80
:10120000F11CD0E0C0E0062F10E0B8010C2E02C0A7
:10121000759567950A94E2F76170F70181917F01F6
:101220000E94B3012196C430D10579F7C601DF9140
:10123000CF911F910F91FF90EF90DF90CF900C9482
:10124000DE08CF92DF92EF92FF920F931F93CF931E
:10125000DF93EC01F62E642F8C810E94B3018D8107
:101260008F3F19F060E00E94B3010F2D10E08F85D1
:1012700084FF25C06E0187E0C80ED11CF12CE12C43
:10128000B8010E2C02C0759567950A94E2F761705B
:10129000F60181916F010E94B301FFEFEF1AFF0A7F
:1012A00088E0E816F10461F7CE01DF91CF911F913C
:1012B0000F91FF90EF90DF90CF900C94DE08B80173
:1012C00084E0759567958A95E1F7CE010E94F40850
:1012D0006F2DCE01DF91CF911F910F91FF90EF9075
:1012E000DF90CF900C94F40840E0682F83EE94E0F8
:1012F0000C94210981E00E9474098BE39FE101971E
:10130000F1F70895CF93DF93823029F49091F2049E
:1013100098609093F2048093F6041092F70480E4AE
:101320008093F80480E18093F90480E58093FA04C7
:101330008091E7040E9487008091E8048F3F11F0BC
:101340000E9487008091E9040E948700C3EED4E0E8
:101350009E01235E34408091F20484FD0AC084E043
:1013600090E02196281739073CF48E810E9487006F
:10137000EFCF88E090E0F5CF8BE39DE00197F1F7A8
:1013800060E08091E7040E94B30160E08091E9048D
:101390000E94B3018091E8048F3F19F060E00E9441
:1013A000B3018091F20484FD34C063E083EE94E0E5
:1013B0000E94F408CBE4D6E4CE010197F1F763E094
:1013C00083EE94E00E94F4082197F1F763E083EE46
:1013D00094E00E94F40883E592E00197F1F762E05F
:1013E00083EE94E00E94F4088091F20480620E94EF
:1013F000740984E08093F3048CE00E9474090E94D5
:101400007A0982E08093F40486E0DF91CF910C9416
:10141000740980620E9474098BE496E40197F1F7E5
:101420008091F20480620E94740983E592E0019742
:10143000F1F78091F20480620E947409D5CFE091A7
:10144000F604E23040F4E150F0E0ED51FB4F8489C6
:1014500080680C947409E1E0F7CF41E00E94210913
:1014600081E090E008951F920F920FB60F92112421
:101470002F933F934F935F936F937F938F939F939C
:10148000AF93BF93EF93FF938BEF93E00E94240100
:10149000FF91EF91BF91AF919F918F917F916F914C
:1014A0005F914F913F912F910F900FBE0F901F9022
:1014B00018951F920F920FB60F9211242F938F93AE
:1014C0009F93EF93FF93E0910B04F0910C048081C4
:1014D000E0911104F091120482FD1BC09081809173
:1014E00014048F5F8F7320911504821741F0E091EF
:1014F0001404F0E0E550FC4F958F80931404FF91A5
:10150000EF919F918F912F910F900FBE0F901F9091
:1015100018958081F4CF1F920F920FB60F9211246D
:101520002F933F938F939F93AF93BF938091F70334
:101530009091F803A091F903B091FA033091E6037A
:1015400023E0230F2D3758F50196A11DB11D2093DF
:10155000E6038093F7039093F803A093F903B09305
:10156000FA038091E7039091E803A091E903B09119
:10157000EA030196A11DB11D8093E7039093E80350
:10158000A093E903B093EA03BF91AF919F918F912C
:101590003F912F910F900FBE0F901F90189526E846
:1015A000230F0296A11DB11DD2CFEBEFF3E0138202
:1015B000128288EE93E0A0E0B0E084839583A68356
:1015C000B78388E091E09183808385EC90E09587F4
:1015D000848784EC90E09787868780EC90E0918BFD
:1015E000808B81EC90E0938B828B82EC90E0958BEA
:1015F000848B86EC90E0978B868B118E128E138EE7
:10160000148EE8E9F4E080E580831182EAE9F4E0F1
:10161000158216821186138682E090E0A0E0B0E089
:1016200084879587A687B78713A215A614A68AE193
:1016300091E093A782A717A6E3EEF4E0138212824B
:1016400086E291E0918380838DE084838FEF8583B0
:101650008CE086838BE087838AE0808789E08187BE
:1016600088E082871386148615861686178681E0A1
:101670000C948209789484B5826084BD84B58160BD
:1016800084BD85B5826085BD85B5816085BD80914D
:101690006E00816080936E001092810080918100C5
:1016A00082608093810080918100816080938100BD
:1016B000809180008160809380008091B10084607F
:1016C0008093B1008091B00081608093B0008091E0
:1016D0007A00846080937A0080917A00826080939F
:1016E0007A0080917A00816080937A0080917A00FC
:1016F000806880937A001092C10082E00E94820983
:101700008EE291E00E94D1080E941F0A8BE391E0D3
:101710000E94D10868EB7BE080E090E00E943602F6
:1017200085E00E94870086E00E94870087E00E9493
:1017300087000E947A0986E491E00E94D1080E9405
:101740001F0A8EE491E00E94D10868EE73E080E009
:1017500090E00E94360280E0682E80E0782E92E0D1
:10176000C92ED12CAA24A394B12C8EE00E94FF0193
:101770004C019093F6038093F50364E670E080E0FB
:1017800090E00E9436028FE00E94FF017C0190935E
:10179000F4038093F30364E670E080E090E00E943D
:1017A000360280E10E94FF018C019093F203809346
:1017B000F10364E670E080E090E00E94360281E18F
:1017C0000E94FF01EC019093F0038093EF0364E625
:1017D00070E080E090E00E943602811422E09206E0
:1017E0000CF45CC0E11482E0F8060CF457C001155B
:1017F00012400CF453C0C115D2400CF44FC080917C
:10180000ED039091EE0301969093EE038093ED0328
:10181000019791F40E947A0964EF71E080E090E012
:101820000E9436028AE591E00E94D10868EB7BE0D5
:1018300080E090E00E9436028091ED039091EE03EB
:10184000029761F58091F5039091F603811592401E
:1018500084F18091F3039091F403811592404CF14F
:101860008091F1039091F2038115924014F18091DF
:10187000EF039091F00381159240DCF00E947A0909
:1018800087E691E00E94D10868EB7BE080E090E081
:101890000E9436021092EE031092ED038091ED0348
:1018A0009091EE03009709F07AC1B092EC03A092F8
:1018B000EB038091F5039091F603811592400CF4AF
:1018C00051C08091F3039091F4038F3F91400CF04D
:1018D00049C08091F1039091F2038F3F91400CF049
:1018E00041C08091EF039091F0038F3F9140D4F578
:1018F0008091EB039091EC030197D1F40E947A0957
:1019000083E791E00E94D10861E087E00E94B30183
:1019100068EE73E080E090E00E94360260E087E0CD
:101920000E94B30168EE73E080E090E00E9436020E
:101930008091EB039091EC030297A1F460E087E0C3
:101940000E94B30161E086E00E94B3010E947A091F
:1019500084E891E00E94D10868EE73E080E090E0B6
:101960000E9436028091F3039091F4038115924016
:101970000CF44CC08091F5039091F6038F3F914099
:101980000CF044C08091F1039091F2038F3F91409D
:10199000ECF58091EF039091F0038F3F9140B4F507
:1019A0008091EB039091EC030197D1F40E947A09A6
:1019B0008DE891E00E94D10861E087E00E94B301C8
:1019C00068EE73E080E090E00E94360260E087E01D
:1019D0000E94B30168EE73E080E090E00E9436025E
:1019E0008091EB039091EC03029781F40E947A09B5
:1019F00089E991E00E94D10860E086E00E94B3018D
:101A000068EE73E080E090E00E9436028091F1037E
:101A10009091F203811592400CF453C08091F5032C
:101A20009091F6038F3F91400CF04BC08091F303EF
:101A30009091F4038F3F91400CF043C08091EF03ED
:101A40009091F0038F3F9140E4F58091EB039091EA
:101A5000EC03019701F50E947A0983EA91E00E9464
:101A6000D1080E941F0A80EB91E00E94D10861E03A
:101A700087E00E94B30168EE73E080E090E00E948E
:101A8000360260E087E00E94B30168EE73E080E018
:101A900090E00E9436028091EB039091EC03029754
:101AA00081F40E947A098AEB91E00E94D10868EEE5
:101AB00073E080E090E00E94360261E085E00E94E1
:101AC000B3018091EF039091F003811592400CF4E3
:101AD0005AC08091F5039091F6038F3F91400CF02E
:101AE00052C08091F3039091F4038F3F91400CF02A
:101AF0004AC08091F1039091F2038F3F91400CF026
:101B000042C08091EB039091EC03019731F50E9464
:101B10007A0981EC91E00E94D1080E941F0A8BECA7
:101B200091E00E94D10861E087E00E94B30168EE75
:101B300073E080E090E00E94360268EE73E080E09F
:101B400090E00E94360260E087E00E94B30168EEF8
:101B500073E080E090E00E9436028091EB03909168
:101B6000EC03029781F40E947A0988ED91E00E94CB
:101B7000D10868EE73E080E090E00E94360260E0F9
:101B800085E00E94B3016114710409F4EECD0E9456
:101B90001001882309F4E9CD0E940000E6CD0197E9
:101BA00009F087CED092EC03C092EB0382CEEE0F09
:0E1BB000FF1F0590F491E02D0994F894FFCFEB
:101BBE00FFFFFFFF000000004601A600D3009301C7
:101BCE000401E200F60000000000A906A600CE08FF
:101BDE00CD08000000002D0AA600CE08CD08536DDA
:101BEE0061727420476C6F766520005265636F6773
:101BFE006E697365640077656C636F6D6500536520
:101C0E006C656374204D6F646500434F4E54524FA4
:101C1E004C204D4F444500535045454348204D4FB1
:101C2E004445004252494E4720534F4D452057419F
:101C3E00544552004C49474854204F4E0049204EBF
:101C4E0045454420464F4F44004C49474854204F89
:101C5E00464600492057414E5420544F20474F00CE
:101C6E005741534820524F4F4D0046414E204F4E44
:101C7E00004920414D20204E4F54004645454C49C9
:101C8E004E472057454C4C0046414E204F4646008D
:00000001FF
